{
  "contractName": "VotingContract",
  "abi": [
    {
      "inputs": [],
      "stateMutability": "nonpayable",
      "type": "constructor"
    },
    {
      "anonymous": false,
      "inputs": [
        {
          "indexed": false,
          "internalType": "uint256",
          "name": "candidateId",
          "type": "uint256"
        },
        {
          "indexed": false,
          "internalType": "string",
          "name": "name",
          "type": "string"
        },
        {
          "indexed": false,
          "internalType": "uint256",
          "name": "votes",
          "type": "uint256"
        }
      ],
      "name": "CandidateAdded",
      "type": "event"
    },
    {
      "anonymous": false,
      "inputs": [
        {
          "indexed": false,
          "internalType": "uint256",
          "name": "candidateId",
          "type": "uint256"
        }
      ],
      "name": "CandidateDeleted",
      "type": "event"
    },
    {
      "anonymous": false,
      "inputs": [
        {
          "indexed": false,
          "internalType": "string",
          "name": "errorMessage",
          "type": "string"
        }
      ],
      "name": "ErrorOccurred",
      "type": "event"
    },
    {
      "anonymous": false,
      "inputs": [
        {
          "indexed": true,
          "internalType": "address",
          "name": "_address",
          "type": "address"
        },
        {
          "indexed": false,
          "internalType": "uint256",
          "name": "_tier",
          "type": "uint256"
        }
      ],
      "name": "TierAdded",
      "type": "event"
    },
    {
      "anonymous": false,
      "inputs": [],
      "name": "voteAdded",
      "type": "event"
    },
    {
      "inputs": [
        {
          "internalType": "uint256",
          "name": "",
          "type": "uint256"
        }
      ],
      "name": "candidates",
      "outputs": [
        {
          "internalType": "uint256",
          "name": "_candidateId",
          "type": "uint256"
        },
        {
          "internalType": "string",
          "name": "name",
          "type": "string"
        },
        {
          "internalType": "uint256",
          "name": "votes",
          "type": "uint256"
        },
        {
          "internalType": "bool",
          "name": "exists",
          "type": "bool"
        }
      ],
      "stateMutability": "view",
      "type": "function",
      "constant": true
    },
    {
      "inputs": [],
      "name": "candidatesCount",
      "outputs": [
        {
          "internalType": "uint256",
          "name": "",
          "type": "uint256"
        }
      ],
      "stateMutability": "view",
      "type": "function",
      "constant": true
    },
    {
      "inputs": [
        {
          "internalType": "address",
          "name": "",
          "type": "address"
        }
      ],
      "name": "tierHolders",
      "outputs": [
        {
          "internalType": "bool",
          "name": "",
          "type": "bool"
        }
      ],
      "stateMutability": "view",
      "type": "function",
      "constant": true
    },
    {
      "inputs": [
        {
          "internalType": "address",
          "name": "",
          "type": "address"
        }
      ],
      "name": "tiers",
      "outputs": [
        {
          "internalType": "uint256",
          "name": "",
          "type": "uint256"
        }
      ],
      "stateMutability": "view",
      "type": "function",
      "constant": true
    },
    {
      "inputs": [
        {
          "internalType": "address",
          "name": "",
          "type": "address"
        }
      ],
      "name": "voters",
      "outputs": [
        {
          "internalType": "bool",
          "name": "",
          "type": "bool"
        }
      ],
      "stateMutability": "view",
      "type": "function",
      "constant": true
    },
    {
      "inputs": [
        {
          "internalType": "string",
          "name": "_name",
          "type": "string"
        }
      ],
      "name": "addCandidate",
      "outputs": [],
      "stateMutability": "nonpayable",
      "type": "function"
    },
    {
      "inputs": [
        {
          "internalType": "uint256",
          "name": "_candidateId",
          "type": "uint256"
        }
      ],
      "name": "deleteCandidate",
      "outputs": [],
      "stateMutability": "nonpayable",
      "type": "function"
    },
    {
      "inputs": [],
      "name": "getCandidates",
      "outputs": [
        {
          "components": [
            {
              "internalType": "uint256",
              "name": "_candidateId",
              "type": "uint256"
            },
            {
              "internalType": "string",
              "name": "name",
              "type": "string"
            },
            {
              "internalType": "uint256",
              "name": "votes",
              "type": "uint256"
            },
            {
              "internalType": "bool",
              "name": "exists",
              "type": "bool"
            }
          ],
          "internalType": "struct VotingContract.Candidate[]",
          "name": "",
          "type": "tuple[]"
        }
      ],
      "stateMutability": "view",
      "type": "function",
      "constant": true
    },
    {
      "inputs": [
        {
          "internalType": "address",
          "name": "_address",
          "type": "address"
        },
        {
          "internalType": "uint256",
          "name": "_tier",
          "type": "uint256"
        }
      ],
      "name": "addTier",
      "outputs": [],
      "stateMutability": "nonpayable",
      "type": "function"
    },
    {
      "inputs": [
        {
          "internalType": "uint256",
          "name": "_candidateId",
          "type": "uint256"
        }
      ],
      "name": "vote",
      "outputs": [],
      "stateMutability": "nonpayable",
      "type": "function"
    },
    {
      "inputs": [
        {
          "internalType": "uint256",
          "name": "_candidateId",
          "type": "uint256"
        }
      ],
      "name": "getCandidateVotes",
      "outputs": [
        {
          "internalType": "uint256",
          "name": "",
          "type": "uint256"
        }
      ],
      "stateMutability": "view",
      "type": "function",
      "constant": true
    }
  ],
  "bytecode": "0x608060405234801561001057600080fd5b50336000806101000a81548173ffffffffffffffffffffffffffffffffffffffff021916908373ffffffffffffffffffffffffffffffffffffffff16021790555060006001819055506000600281905550611b7e806100706000396000f3fe608060405234801561001057600080fd5b50600436106100a95760003560e01c8063462e91ec11610071578063462e91ec14610155578063866163c014610171578063a3ec138d146101a1578063b2a81999146101d1578063c8111f27146101ed578063ce2b92901461021d576100a9565b80630121b93f146100ae57806306a49fce146100ca5780631e620cd4146100e85780632d35a8a2146101045780633477ee2e14610122575b600080fd5b6100c860048036038101906100c39190610e62565b61024d565b005b6100d2610510565b6040516100df919061106e565b60405180910390f35b61010260048036038101906100fd9190610e62565b6106ce565b005b61010c61085b565b604051610119919061109f565b60405180910390f35b61013c60048036038101906101379190610e62565b610861565b60405161014c9493929190611113565b60405180910390f35b61016f600480360381019061016a9190611294565b610926565b005b61018b60048036038101906101869190610e62565b610af7565b604051610198919061109f565b60405180910390f35b6101bb60048036038101906101b6919061133b565b610b7a565b6040516101c89190611368565b60405180910390f35b6101eb60048036038101906101e69190611383565b610b9a565b005b6102076004803603810190610202919061133b565b610d59565b604051610214919061109f565b60405180910390f35b6102376004803603810190610232919061133b565b610d71565b6040516102449190611368565b60405180910390f35b600460003373ffffffffffffffffffffffffffffffffffffffff1673ffffffffffffffffffffffffffffffffffffffff16815260200190815260200160002060009054906101000a900460ff16156102d9577fcc8610635659273962514cbb1e149386cc83625cb5595394a01869a0c3fbf7cb6040516102cc9061140f565b60405180910390a161050d565b6003600082815260200190815260200160002060030160009054906101000a900460ff1661033b577fcc8610635659273962514cbb1e149386cc83625cb5595394a01869a0c3fbf7cb60405161032e9061147b565b60405180910390a161050d565b600560003373ffffffffffffffffffffffffffffffffffffffff1673ffffffffffffffffffffffffffffffffffffffff16815260200190815260200160002060009054906101000a900460ff16610415576003600082815260200190815260200160002060020160008154809291906103b3906114ca565b91905055506001600460003373ffffffffffffffffffffffffffffffffffffffff1673ffffffffffffffffffffffffffffffffffffffff16815260200190815260200160002060006101000a81548160ff0219169083151502179055506104e0565b6000600660003373ffffffffffffffffffffffffffffffffffffffff1673ffffffffffffffffffffffffffffffffffffffff1681526020019081526020016000205490508060036000848152602001908152602001600020600201600082825461047f9190611512565b925050819055506001600460003373ffffffffffffffffffffffffffffffffffffffff1673ffffffffffffffffffffffffffffffffffffffff16815260200190815260200160002060006101000a81548160ff021916908315150217905550505b7fd018e3169536f34978498d5a2eed191163a65a6efd0c4d8678f5b842ee19e55960405160405180910390a15b50565b6060600060015467ffffffffffffffff8111156105305761052f611169565b5b60405190808252806020026020018201604052801561056957816020015b610556610d91565b81526020019060019003908161054e5790505b509050600080600190505b60025481116106c5576003600082815260200190815260200160002060030160009054906101000a900460ff16156106b25760036000828152602001908152602001600020604051806080016040529081600082015481526020016001820180546105de90611575565b80601f016020809104026020016040519081016040528092919081815260200182805461060a90611575565b80156106575780601f1061062c57610100808354040283529160200191610657565b820191906000526020600020905b81548152906001019060200180831161063a57829003601f168201915b50505050508152602001600282015481526020016003820160009054906101000a900460ff161515151581525050838381518110610698576106976115a6565b5b602002602001018190525081806106ae906114ca565b9250505b80806106bd906114ca565b915050610574565b50819250505090565b3373ffffffffffffffffffffffffffffffffffffffff1660008054906101000a900473ffffffffffffffffffffffffffffffffffffffff1673ffffffffffffffffffffffffffffffffffffffff161461075b577fcc8610635659273962514cbb1e149386cc83625cb5595394a01869a0c3fbf7cb60405161074e90611647565b60405180910390a1610858565b6003600082815260200190815260200160002060030160009054906101000a900460ff166107bd577fcc8610635659273962514cbb1e149386cc83625cb5595394a01869a0c3fbf7cb6040516107b09061147b565b60405180910390a1610857565b600360008281526020019081526020016000206000808201600090556001820160006107e99190610dbb565b60028201600090556003820160006101000a81549060ff021916905550506001600081548092919061081a90611667565b91905055507f5768df5843e58ec5b2fc92eb6ef81241e9ec50a0b93fd074dec58b39efc417208160405161084e919061109f565b60405180910390a15b5b50565b60015481565b600360205280600052604060002060009150905080600001549080600101805461088a90611575565b80601f01602080910402602001604051908101604052809291908181526020018280546108b690611575565b80156109035780601f106108d857610100808354040283529160200191610903565b820191906000526020600020905b8154815290600101906020018083116108e657829003601f168201915b5050505050908060020154908060030160009054906101000a900460ff16905084565b6000815103610969577fcc8610635659273962514cbb1e149386cc83625cb5595394a01869a0c3fbf7cb60405161095c906116dc565b60405180910390a1610af4565b3373ffffffffffffffffffffffffffffffffffffffff1660008054906101000a900473ffffffffffffffffffffffffffffffffffffffff1673ffffffffffffffffffffffffffffffffffffffff16146109f6577fcc8610635659273962514cbb1e149386cc83625cb5595394a01869a0c3fbf7cb6040516109e99061176e565b60405180910390a1610af3565b60026000815480929190610a09906114ca565b9190505550600060025490506000604051806080016040528083815260200184815260200182815260200160011515815250600360006002548152602001908152602001600020600082015181600001556020820151816001019081610a6f919061193a565b506040820151816002015560608201518160030160006101000a81548160ff02191690831515021790555090505060016000815480929190610ab0906114ca565b91905055507fc0a81c9aad7f882e7dd72db314924227026255cc5ad0164435df572dec8c804d828483604051610ae893929190611a0c565b60405180910390a150505b5b50565b60006003600083815260200190815260200160002060030160009054906101000a900460ff16610b5c576040517f08c379a0000000000000000000000000000000000000000000000000000000008152600401610b539061147b565b60405180910390fd5b60036000838152602001908152602001600020600201549050919050565b60046020528060005260406000206000915054906101000a900460ff1681565b3373ffffffffffffffffffffffffffffffffffffffff1660008054906101000a900473ffffffffffffffffffffffffffffffffffffffff1673ffffffffffffffffffffffffffffffffffffffff1614610c27577fcc8610635659273962514cbb1e149386cc83625cb5595394a01869a0c3fbf7cb604051610c1a90611abc565b60405180910390a1610d55565b60008111610c69577fcc8610635659273962514cbb1e149386cc83625cb5595394a01869a0c3fbf7cb604051610c5c90611b28565b60405180910390a1610d54565b6001600560008473ffffffffffffffffffffffffffffffffffffffff1673ffffffffffffffffffffffffffffffffffffffff16815260200190815260200160002060006101000a81548160ff02191690831515021790555080600660008473ffffffffffffffffffffffffffffffffffffffff1673ffffffffffffffffffffffffffffffffffffffff168152602001908152602001600020819055508173ffffffffffffffffffffffffffffffffffffffff167f8e0da8627e093517db34de9de680cd42d3a669ee8ca7fe23183c7c3a9942f0fc82604051610d4b919061109f565b60405180910390a25b5b5050565b60066020528060005260406000206000915090505481565b60056020528060005260406000206000915054906101000a900460ff1681565b60405180608001604052806000815260200160608152602001600081526020016000151581525090565b508054610dc790611575565b6000825580601f10610dd95750610df8565b601f016020900490600052602060002090810190610df79190610dfb565b5b50565b5b80821115610e14576000816000905550600101610dfc565b5090565b6000604051905090565b600080fd5b600080fd5b6000819050919050565b610e3f81610e2c565b8114610e4a57600080fd5b50565b600081359050610e5c81610e36565b92915050565b600060208284031215610e7857610e77610e22565b5b6000610e8684828501610e4d565b91505092915050565b600081519050919050565b600082825260208201905092915050565b6000819050602082019050919050565b610ec481610e2c565b82525050565b600081519050919050565b600082825260208201905092915050565b60005b83811015610f04578082015181840152602081019050610ee9565b60008484015250505050565b6000601f19601f8301169050919050565b6000610f2c82610eca565b610f368185610ed5565b9350610f46818560208601610ee6565b610f4f81610f10565b840191505092915050565b60008115159050919050565b610f6f81610f5a565b82525050565b6000608083016000830151610f8d6000860182610ebb565b5060208301518482036020860152610fa58282610f21565b9150506040830151610fba6040860182610ebb565b506060830151610fcd6060860182610f66565b508091505092915050565b6000610fe48383610f75565b905092915050565b6000602082019050919050565b600061100482610e8f565b61100e8185610e9a565b93508360208202850161102085610eab565b8060005b8581101561105c578484038952815161103d8582610fd8565b945061104883610fec565b925060208a01995050600181019050611024565b50829750879550505050505092915050565b600060208201905081810360008301526110888184610ff9565b905092915050565b61109981610e2c565b82525050565b60006020820190506110b46000830184611090565b92915050565b600082825260208201905092915050565b60006110d682610eca565b6110e081856110ba565b93506110f0818560208601610ee6565b6110f981610f10565b840191505092915050565b61110d81610f5a565b82525050565b60006080820190506111286000830187611090565b818103602083015261113a81866110cb565b90506111496040830185611090565b6111566060830184611104565b95945050505050565b600080fd5b600080fd5b7f4e487b7100000000000000000000000000000000000000000000000000000000600052604160045260246000fd5b6111a182610f10565b810181811067ffffffffffffffff821117156111c0576111bf611169565b5b80604052505050565b60006111d3610e18565b90506111df8282611198565b919050565b600067ffffffffffffffff8211156111ff576111fe611169565b5b61120882610f10565b9050602081019050919050565b82818337600083830152505050565b6000611237611232846111e4565b6111c9565b90508281526020810184848401111561125357611252611164565b5b61125e848285611215565b509392505050565b600082601f83011261127b5761127a61115f565b5b813561128b848260208601611224565b91505092915050565b6000602082840312156112aa576112a9610e22565b5b600082013567ffffffffffffffff8111156112c8576112c7610e27565b5b6112d484828501611266565b91505092915050565b600073ffffffffffffffffffffffffffffffffffffffff82169050919050565b6000611308826112dd565b9050919050565b611318816112fd565b811461132357600080fd5b50565b6000813590506113358161130f565b92915050565b60006020828403121561135157611350610e22565b5b600061135f84828501611326565b91505092915050565b600060208201905061137d6000830184611104565b92915050565b6000806040838503121561139a57611399610e22565b5b60006113a885828601611326565b92505060206113b985828601610e4d565b9150509250929050565b7f596f75206861766520616c726561647920766f7465642e000000000000000000600082015250565b60006113f96017836110ba565b9150611404826113c3565b602082019050919050565b60006020820190508181036000830152611428816113ec565b9050919050565b7f496e76616c69642063616e6469646174652049442e0000000000000000000000600082015250565b60006114656015836110ba565b91506114708261142f565b602082019050919050565b6000602082019050818103600083015261149481611458565b9050919050565b7f4e487b7100000000000000000000000000000000000000000000000000000000600052601160045260246000fd5b60006114d582610e2c565b91507fffffffffffffffffffffffffffffffffffffffffffffffffffffffffffffffff82036115075761150661149b565b5b600182019050919050565b600061151d82610e2c565b915061152883610e2c565b92508282019050808211156115405761153f61149b565b5b92915050565b7f4e487b7100000000000000000000000000000000000000000000000000000000600052602260045260246000fd5b6000600282049050600182168061158d57607f821691505b6020821081036115a05761159f611546565b5b50919050565b7f4e487b7100000000000000000000000000000000000000000000000000000000600052603260045260246000fd5b7f4f6e6c792074686520636f6e7472616374206f776e65722063616e2064656c6560008201527f74652063616e646964617465732e2e2e00000000000000000000000000000000602082015250565b60006116316030836110ba565b915061163c826115d5565b604082019050919050565b6000602082019050818103600083015261166081611624565b9050919050565b600061167282610e2c565b9150600082036116855761168461149b565b5b600182039050919050565b7f43616e646964617465206e616d652063616e277420626520656d7074792e0000600082015250565b60006116c6601e836110ba565b91506116d182611690565b602082019050919050565b600060208201905081810360008301526116f5816116b9565b9050919050565b7f4f6e6c792074686520636f6e7472616374206f776e65722063616e206164642060008201527f63616e646964617465732e2e2e00000000000000000000000000000000000000602082015250565b6000611758602d836110ba565b9150611763826116fc565b604082019050919050565b600060208201905081810360008301526117878161174b565b9050919050565b60008190508160005260206000209050919050565b60006020601f8301049050919050565b600082821b905092915050565b6000600883026117f07fffffffffffffffffffffffffffffffffffffffffffffffffffffffffffffffff826117b3565b6117fa86836117b3565b95508019841693508086168417925050509392505050565b6000819050919050565b600061183761183261182d84610e2c565b611812565b610e2c565b9050919050565b6000819050919050565b6118518361181c565b61186561185d8261183e565b8484546117c0565b825550505050565b600090565b61187a61186d565b611885818484611848565b505050565b5b818110156118a95761189e600082611872565b60018101905061188b565b5050565b601f8211156118ee576118bf8161178e565b6118c8846117a3565b810160208510156118d7578190505b6118eb6118e3856117a3565b83018261188a565b50505b505050565b600082821c905092915050565b6000611911600019846008026118f3565b1980831691505092915050565b600061192a8383611900565b9150826002028217905092915050565b61194382610eca565b67ffffffffffffffff81111561195c5761195b611169565b5b6119668254611575565b6119718282856118ad565b600060209050601f8311600181146119a45760008415611992578287015190505b61199c858261191e565b865550611a04565b601f1984166119b28661178e565b60005b828110156119da578489015182556001820191506020850194506020810190506119b5565b868310156119f757848901516119f3601f891682611900565b8355505b6001600288020188555050505b505050505050565b6000606082019050611a216000830186611090565b8181036020830152611a3381856110cb565b9050611a426040830184611090565b949350505050565b7f4f6e6c792074686520636f6e7472616374206f776e65722063616e206d6f646960008201527f66792074696572732e2e2e000000000000000000000000000000000000000000602082015250565b6000611aa6602b836110ba565b9150611ab182611a4a565b604082019050919050565b60006020820190508181036000830152611ad581611a99565b9050919050565b7f54696572206d75737420626520686967686572207468616e20302e0000000000600082015250565b6000611b12601b836110ba565b9150611b1d82611adc565b602082019050919050565b60006020820190508181036000830152611b4181611b05565b905091905056fea26469706673582212208c2506144715c44ef2f1b028b5c47594920a8375f7f1825e7e4257cea37a612564736f6c63430008130033",
  "immutableReferences": {},
  "source": "// SPDX-License-Identifier: MIT\npragma solidity ^0.8.19;\n\n\ncontract VotingContract {\n\n\n    event CandidateAdded(uint256 candidateId, string name, uint256 votes); //Listens for new candidates being added\n    event CandidateDeleted(uint256 candidateId); //Listens for candidates being deleted\n    event ErrorOccurred(string errorMessage); //Listens for error\n    event TierAdded(address indexed _address, uint256 _tier); //Listers to a voter's tier being updated\n    event voteAdded(); //Listens to new votes\n\n    struct Candidate {\n        uint256 _candidateId; //The unique id. This is used to distinguish candidates\n        string name; //The name of the candidate\n        uint256 votes; //The number of votes the candidate has received\n        bool exists; //This is used when deleting candidates\n    }\n    address private contractOwner; //The owner of the contract.\n    uint256 public candidatesCount; //How many candidates exist in the election\n    uint256 private c_id_counter; ////Candidate id counter, needed for assigning ids to new candidates\n\n    mapping(uint256 => Candidate) public candidates; //Mapping of candidates\n    mapping(address => bool) public voters; // Mapping of people who have already voted\n    mapping(address => bool) public tierHolders; //Mapping of people who have a tier\n    mapping(address => uint256) public tiers; //Mapping of tier weights\n\n    constructor() {\n        contractOwner = msg.sender; //Records the owner of the contract\n        candidatesCount = 0; //Number of candidates in the election\n        c_id_counter = 0; //Candidate id counter\n    }\n\n    //adds a new candidate\n    function addCandidate(string memory _name) public {\n        if (bytes(_name).length == 0) {//Checks that the parameter isn't empty\n              emit ErrorOccurred(\"Candidate name can't be empty.\");\n        } else if (contractOwner != msg.sender) {//Checks whether caller is the owner\n            emit ErrorOccurred(\"Only the contract owner can add candidates...\");\n        } else {\n            c_id_counter++;//generates a new id for the candidate\n            uint256 theID = c_id_counter;\n            uint256 theVotes = 0;\n\n            candidates[c_id_counter] = Candidate(theID, _name, theVotes, true);//creates a new candidate\n            candidatesCount++;\n\n            emit CandidateAdded(theID, _name, theVotes); //Emit the event to the listener\n        }\n    }\n\n    \n\n    //Deletes a candidate\n    function deleteCandidate(uint256 _candidateId) public {\n        if (contractOwner != msg.sender) {//Checks whether caller is the owner\n            emit ErrorOccurred(\"Only the contract owner can delete candidates...\");\n        } else if (!candidates[_candidateId].exists) {\n            emit ErrorOccurred(\"Invalid candidate ID.\");\n        } else {\n            delete candidates[_candidateId]; //Deletes the candidate\n            candidatesCount--;\n\n            emit CandidateDeleted(_candidateId);// Emit the event to the listener\n        }\n    }\n\n\n    //Returns an array of all the candidates\n    function getCandidates() public view returns (Candidate[] memory) {\n    Candidate[] memory allCandidates = new Candidate[](candidatesCount);\n\n        uint256 currentIndex = 0;\n\n        // Iterates over all given ids and populates the array\n        for (uint256 i = 1; i <= c_id_counter; i++) {\n            if (candidates[i].exists) {\n                allCandidates[currentIndex] = candidates[i];\n                currentIndex++;\n            }\n        }\n        return allCandidates;\n    }\n\n    //Adds a tier to given address\n    function addTier(address _address, uint256 _tier) public {\n        if (contractOwner != msg.sender) { //Checks whether caller is the owner\n            emit ErrorOccurred(\"Only the contract owner can modify tiers...\");\n        } else if (_tier <= 0) {\n            emit ErrorOccurred(\"Tier must be higher than 0.\");\n        } else {\n            tierHolders[_address] = true; //maps that the person has a tier higher than 1\n            tiers[_address] = _tier;//maps the users tier\n\n            emit TierAdded(_address, _tier);\n        }\n    }\n\n\n// Adds a new vote\nfunction vote(uint _candidateId) public {\n    if (voters[msg.sender]) { //If the voter has already voted once\n        emit ErrorOccurred(\"You have already voted.\");\n        return;\n    }\n    if (!candidates[_candidateId].exists) { //If no candidate with that id exists\n        emit ErrorOccurred(\"Invalid candidate ID.\");\n        return;\n    }\n\n    if (!tierHolders[msg.sender]) { // If the voter doesn't have a tier, vote counts as 1\n        candidates[_candidateId].votes++;\n        voters[msg.sender] = true;\n    } else { // If the voter does have a tier, the vote counts as n (the value of the tier)\n        uint256 votingPower = tiers[msg.sender];\n        candidates[_candidateId].votes += votingPower;\n        voters[msg.sender] = true; // Marks that the person has voted\n    }\n\n    emit voteAdded(); // Emit the event to the listener\n}\n\n\n\n\n\n\n    //Returns ONLY the number of votes a certain candidate has received\n    function getCandidateVotes(uint _candidateId) public view returns (uint) {\n        require(candidates[_candidateId].exists, \"Invalid candidate ID.\"); //Checks whether the candidate exists\n        return candidates[_candidateId].votes;\n    }\n\n}",
  "sourcePath": "C:\\School\\Blockchain\\repo\\voting-bc-app\\smart contract\\contracts\\VotingContract.sol",
  "compiler": {
    "name": "solc",
    "version": "0.8.19+commit.7dd6d404.Emscripten.clang"
  },
  "schemaVersion": "3.4.13",
  "updatedAt": "2023-05-20T23:19:24.965Z",
  "networkType": "ethereum",
  "devdoc": {
    "kind": "dev",
    "methods": {},
    "version": 1
  },
  "userdoc": {
    "kind": "user",
    "methods": {},
    "version": 1
  }
}